:100000000C9456000C9473000C9473000C947300C1
:100010000C9473000C9473000C9473000C94730094
:100020000C9473000C9473000C9473000C94730084
:100030000C9473000C9473000C9473000C94730074
:100040000C9473000C9473000C9473000C94730064
:100050000C9473000C9473000C9473000C94730054
:100060000C9473000C9473000C9473000C94730044
:100070000C9473000C941F020C9473000C94730086
:100080000C9473000C9473000C9473000C94730024
:100090000C9473000C9473000C9473000C94730014
:1000A0000C9473000C9473000C94730011241FBE05
:1000B000CFEFDAE0DEBFCDBF11E0A0E0B1E0EAE0D3
:1000C000FBE002C005900D92A433B107D9F721E0FF
:1000D000A4E3B1E001C01D92A935B207E1F70E9487
:1000E00000010C9483050C94000000000000000047
:1000F0000000000000000000000000000000000000
:100100000000089500000000000000000000000052
:100110000000000000000000000000008A95803010
:1001200089F70895282F8AEFEDDF8AEFEBDF8AEF5A
:10013000E9DF8AEFE7DF2A952030A9F70895282F15
:100140002F938AEFEFDF8AEFEDDF8AEFEBDF8AEFA5
:10015000E9DF2F912A95203099F708950E94F60142
:100160000E948D010895EF92FF920F931F93CF93FA
:100170007C018B01C42F8CE00E9487010E947F01CB
:10018000C7010E94C70160E081E00E94BD01C80173
:100190000E94C701CC2319F08C2F0E949F00CF91A1
:1001A0001F910F91FF90EF9008950E94FA018093A4
:1001B0004701813321F49091450191111BC0823395
:1001C00061F480914501813041F00E945202811119
:1001D00004C080914501823079F40E945202882344
:1001E00031F080914501882311F0823039F48091FB
:1001F0004501089580E0089581E0089582E0089522
:100200000E94AE000E942F020E94D501109245016B
:1002100080914501813089F018F08230C1F024C00E
:100220008AE0E1E0F1E0A4E3B1E001900D928A956B
:10023000E1F780E00E94E90117C089E0EBE0F1E01E
:10024000A4E3B1E001900D928A95E1F70DC00E9400
:1002500052020E94E9018EE0E4E1F1E0A4E3B1E0A2
:1002600001900D928A95E1F70E9452021F9295E249
:100270009F931F928F9382E291E09F938F9388E4E4
:1002800091E09F938F930E94990240E068E471E0AF
:1002900084E391E00E94B3000E94D5008093450161
:1002A0008DB79EB708960FB6F8949EBF0FBE8DBF50
:1002B000AFCF91B39F70807F892B81BB8BB180685A
:1002C0008BB90E9475008BB18F778BB90895CF934E
:1002D000C62F811104C08BB18F7B8BB903C08BB14A
:1002E00080648BB98C2F0E9459018C2F8295807F5E
:1002F0000E9459018DE20E948200CF91089561E031
:1003000080E00E94670182E00E9492000895682FB9
:100310006C6080E00E946701089580EF80BB80ECF4
:100320008AB984E10E9492008BB18F7B8BB980E304
:100330000E9459018AE00E94920080E30E945901C4
:100340008AE00E94920080E30E9459018AE00E94A4
:10035000920080E20E9459018DE20E94820068E2D0
:1003600080E00E9467018FE00E9487010E947F0168
:1003700066E080E00E946701089520E4829FC0014A
:100380001124682B606880E00E9467010895CF9374
:10039000DF93EC0104C081E00E946701219668812F
:1003A0006111F9CFDF91CF91089587B1806487B94A
:1003B000E0E9F0E0808180688083808181608083D3
:1003C000E1E9F0E0808188608083808183608083C0
:1003D0000895109299002FEF829FC001112464E6C6
:1003E00070E00E9462026093980008951DB880EF4B
:1003F00084B908950F931F93CF93C0E019C025B11E
:100400000C2F10E0C80182959295907F9827807FED
:100410009827922F9F70892B85B981E00E949200C6
:10042000669B05C0F801E95DFE4F808104C0CF5F87
:10043000CC3028F380E0CF911F910F9108951F9247
:100440000F920FB60F9211248F93809179008093B1
:1004500000018F910F900FBE0F901F901895ECE741
:10046000F0E08081806480838081816080838081EE
:1004700080628083EAE7F0E080818760808380810A
:1004800080628083808188608083808180688083AF
:1004900083E080937E001092D800789480818064FD
:1004A000808308952091000184E6289F9001112403
:1004B000A1E8B0E80E947602880F892F881F990B67
:1004C0009195089597FB072E16F4009407D077FDB9
:1004D00009D00E94850207FC05D03EF490958195D5
:1004E0009F4F0895709561957F4F0895A29FB00129
:1004F000B39FC001A39F700D811D1124911DB29F58
:10050000700D811D1124911D0895AA1BBB1B51E183
:1005100007C0AA1FBB1FA617B70710F0A61BB70B73
:10052000881F991F5A95A9F780959095BC01CD0118
:100530000895AEE0B0E0EFE9F2E00C945A050D89C1
:100540001E8986E08C831A8309838FEF9FE79E8341
:100550008D83AE01475E5F4F6F89788DCE01019626
:100560000E94BB02EF81F885E00FF11F10822E96EA
:10057000E4E00C947605ABE0B0E0E1ECF2E00C9442
:100580004C056C017B018A01FC0117821682838174
:1005900081FFCCC1CE0101963C01F6019381F701A8
:1005A00093FD859193FF81917F01882309F4BAC15E
:1005B000853239F493FD859193FF81917F018532D6
:1005C00029F4B60190E00E94B204E7CF912C212CCF
:1005D000312CFFE1F315D8F08B3279F038F480320A
:1005E00079F08332A1F4232D20611DC08D3261F09A
:1005F000803369F4232D216016C0832D8260382E4C
:10060000E32DE4603E2E2AC0F32DF8601DC037FCB8
:100610002DC020ED280F2A3040F08E32B9F436FC80
:1006200081C1232D2064322E19C036FE06C08AE017
:10063000989E200D1124922E11C0EAE02E9E200DCE
:100640001124222EF32DF0623F2E08C08C3621F4A7
:10065000832D8068382E02C0883641F4F70193FD5F
:10066000859193FF81917F018111B3CF982F9F7D59
:100670009554933028F40C5F1F4F9FE399830DC06E
:10068000833631F0833771F0833509F059C021C0CA
:10069000F801808189830E5F1F4F88248394912CF9
:1006A000530113C02801F2E04F0E511CF801A08045
:1006B000B18036FE03C0692D70E002C06FEF7FEF9E
:1006C000C5010E94A7044C018201F32DFF773F2E44
:1006D00016C0280122E0420E511CF801A080B18012
:1006E00036FE03C0692D70E002C06FEF7FEFC501D9
:1006F0000E949C044C01F32DF0683F2E820133FCD4
:100700001BC0822D90E088169906B0F4B60180E2F5
:1007100090E00E94B2042A94F4CFF50137FC859151
:1007200037FE81915F01B60190E00E94B204211072
:100730002A9421E0821A91088114910471F7E8C08B
:10074000843611F0893641F5F80137FE07C0608123
:100750007181828193810C5F1F4F08C0608171811C
:10076000072E000C880B990B0E5F1F4FF32DFF76A1
:100770003F2E97FF09C090958095709561957F4FAA
:100780008F4F9F4FF0683F2E2AE030E0A3010E9478
:10079000EE04882E861845C0853731F4232D2F7E30
:1007A000B22E2AE030E025C0932D997FB92E8F36E6
:1007B000C1F018F4883579F0B5C0803719F0883762
:1007C00021F0B0C0E92FE061BE2EB4FE0DC0FB2DBC
:1007D000F460BF2E09C034FE0AC0292F2660B22E55
:1007E00006C028E030E005C020E130E002C020E192
:1007F00032E0F801B7FE07C0608171818281938188
:100800000C5F1F4F06C06081718180E090E00E5F39
:100810001F4FA3010E94EE04882E8618FB2DFF7740
:100820003F2E36FE0DC0232D2E7FA22E891458F4A4
:1008300034FE0BC032FC09C0832D8E7EA82E05C06D
:10084000B82CA32C03C0B82C01C0B92CA4FE0FC037
:10085000FE01E80DF11D8081803321F49A2D997EEF
:10086000A92E09C0A2FE06C0B394B39404C08A2D79
:10087000867809F0B394A3FC11C0A0FE06C0B214A0
:1008800088F4280C922C9B180EC0B21460F4B601A8
:1008900080E290E00E94B204B394F7CFB21418F44F
:1008A0002B1802C0982C212CA4FE10C0B60180E3A6
:1008B00090E00E94B204A2FE17C0A1FC03C088E72A
:1008C00090E002C088E590E0B6010CC08A2D8678E1
:1008D00059F0A1FE02C08BE201C080E2A7FC8DE2CC
:1008E000B60190E00E94B204891438F4B60180E3A6
:1008F00090E00E94B2049A94F7CF8A94F301E80D35
:10090000F11D8081B60190E00E94B2048110F5CF04
:10091000222009F442CEB60180E290E00E94B204A7
:100920002A94F6CFF6018681978102C08FEF9FEF60
:100930002B96E2E10C946805FC0105906150704033
:100940000110D8F7809590958E0F9F1F0895FC0198
:100950006150704001900110D8F7809590958E0FEE
:100960009F1F08950F931F93CF93DF93FB01238164
:1009700021FD03C08FEF9FEF2CC022FF16C04681E0
:100980005781248135814217530744F4A081B181F6
:100990009D012F5F3F4F318320838C9326813781C8
:1009A0002F5F3F4F3783268314C08B01EC01FB017F
:1009B0000084F185E02D0995892BE1F6D801169682
:1009C0008D919C911797019617969C938E931697ED
:1009D000CE01DF91CF911F910F910895FA01AA27BF
:1009E000283051F1203181F1E8946F936E7F6E5F72
:1009F0007F4F8F4F9F4FAF4FB1E03ED0B4E03CD020
:100A0000670F781F891F9A1FA11D680F791F8A1F02
:100A1000911DA11D6A0F711D811D911DA11D20D069
:100A200009F468943F912AE0269F11243019305D23
:100A30003193DEF6CF010895462F4770405D419314
:100A4000B3E00FD0C9F7F6CF462F4F70405D4A3361
:100A500018F0495D31FD4052419302D0A9F7EACF29
:100A6000B4E0A6959795879577956795BA95C9F758
:100A700000976105710508959B01AC010A2E06944B
:100A80005795479537952795BA95C9F7620F731F04
:100A9000841F951FA01D08952F923F924F925F9241
:100AA0006F927F928F929F92AF92BF92CF92DF927E
:100AB000EF92FF920F931F93CF93DF93CDB7DEB7E3
:100AC000CA1BDB0B0FB6F894DEBF0FBECDBF099477
:100AD0002A88398848885F846E847D848C849B84CE
:100AE000AA84B984C884DF80EE80FD800C811B81DC
:100AF000AA81B981CE0FD11D0FB6F894DEBF0FBE0B
:0A0B0000CDBFED010895F894FFCF7A
:100B0A00DD4D4F544F52204F4646004D4F544F52E1
:100B1A00204F4E004D6F746F722072756E6E696E43
:100B2A00670025752563003134372A32353830336A
:040B3A003639230025
:00000001FF
